:020000040800F2
:1000000000500020FD6300084164000841640008BE
:1000100041640008416400084164000800000000D9
:100020000000000000000000000000004164000823
:1000300041640008000000004164000841640008B9
:1000400041640008416400084164000841640008FC
:100050004164000841640008993C00089D3C000888
:10006000A13C0008A53C0008A93C00084164000828
:1000700041640008416400084164000841640008CC
:10008000416400084164000841640008CF3500085D
:10009000CD3500084164000841640008AD3C00080B
:1000A000416400084164000841640008416400089C
:1000B000416400084164000841640008416400088C
:1000C000416400084164000841640008416400087C
:1000D00041640008114100084164000841640008BF
:1000E000E13C000841640008D13500080000000030
:1000F0000000000000000000000000000000000000
:0C01000000000000000000005FF808F1A3
:10011000384B82B01A6842F001021A605968364AB8
:1001200001EA02025A601A6822F0847222F48032D4
:100130001A601A6822F480221A605A6822F4FE02B9
:100140005A604FF41F029A600022019200921A68CE
:1001500042F480321A60274B1A6802F4003200928F
:10016000019A01320192009A1AB9019AB2F5A06F70
:10017000F1D11B6813F4003318BF01230093009BD7
:10018000012B34D11D4B1A6842F010021A601A6814
:1001900022F003021A601A6842F002021A60154B3C
:1001A0005A685A605A685A605A6842F480625A60C3
:1001B0005A6822F47C125A605A6842F4E8125A6073
:1001C0001A6842F080721A600A4B1A6812F0007FB7
:1001D000FAD05A6822F003025A605A6842F00202CA
:1001E0005A60044B5B6803F00C03082BF9D102B092
:1001F000704700BF001002400000FFF800200240DE
:10020000144A154B516801F00C01042901D008294A
:1002100002D0124A1A6011E05168506801F470115E
:10022000890C023110F4803F03D0526812F4003F71
:1002300001D00B4A00E0094A51431960054A196888
:10024000526802F0F00203EB1212127931FA02F254
:100250001A607047001002400000002000127A006F
:1002600000093D0040F0BE60024B40F42020D86001
:10027000704700BF00ED00E0C37810B5E3B1144B48
:100280004178DB688478DB4303F4E0631B0AC3F145
:10029000040291400F22DA4022400A430D4B0178BC
:1002A0001201CB1883F8002303780122590903F0C7
:1002B0001F0312FA03F307E003780122590903F040
:1002C0001F0312FA03F32031024A42F8213010BD15
:1002D00000ED00E000E100E021F0604121F07F014D
:1002E000014B01439960704700ED00E0044B11B1F0
:1002F0001A69104302E01A6922EA00001861704787
:1003000000ED00E0044B04281A680CBF42F0040220
:1003100022F004021A60704710E000E00D4B1A68EA
:1003200042F001021A6059680B4A01EA02025A605F
:100330001A6822F0847222F480321A601A6822F459
:1003400080221A605A6822F4FE025A604FF41F029B
:100350009A607047001002400000FFF80C4BB0F5A7
:10036000803F1A6822F480321A601A6822F48022D0
:100370001A6003D0B0F5802F09D104E01A6842F466
:1003800080321A6070471A6842F4A0221A607047DF
:1003900000100240034B1A6822F0F80242EAC00241
:1003A0001A60704700100240014B1860704700BF90
:1003B00000004242044B5A6822F47C1240EA0202D6
:1003C0000A435A60704700BF00100240014B18609A
:1003D000704700BF60004242034B5A6822F003029C
:1003E00040EA02025A60704700100240024B58680F
:1003F00000F00C00704700BF00100240034B5A6829
:1004000022F0F00240EA02025A60704700100240F7
:10041000034B5A6822F4E06240EA02025A607047D5
:1004200000100240034B5A6822F4605242EAC002B4
:100430005A60704700100240044B11B11A78104303
:1004400002E01A7822EA0000187070470910024092
:10045000014B1860704700BFD8004242034B5A68F6
:1004600022F4404240EA02025A6070470010024003
:10047000064B002201281A701A7002D0042804D1F9
:1004800001E01870704705221A7070472010024072
:10049000014B1860704700BF80044242024B1A6A49
:1004A00040EA02021A62704700100240014B1860D5
:1004B000704700BF3C044242204B10B55A6802F01E
:1004C0000C02042A01D0082A02D01D4B036011E05F
:1004D0005A68596802F47012920C023211F4803F8B
:1004E00003D05B6813F4003F01D0164B00E0144BBF
:1004F0005A430260114A144B5168046801F0F0013C
:100500000909595C34FA01F14160546804F4E0646B
:10051000240A1C5D31FA04F48460546804F46054C5
:10052000E40A1C5DE140C160526802F4404203EB02
:1005300092331B7CB1FBF3F1016110BD001002404E
:1005400000127A0000093D0014000020044B11B194
:100550005A69104302E05A6922EA00005861704764
:1005600000100240044B11B19A69104302E09A69ED
:1005700022EA00009861704700100240044B11B15C
:10058000DA69104302E0DA6922EA0000D8617047B4
:1005900000100240044B11B1DA68104302E0DA683F
:1005A00022EA0000D860704700100240044B11B1ED
:1005B0001A69104302E01A6922EA000018617047C4
:1005C00000100240014B1860704700BF40044242D7
:1005D000014B1860704700BF4C004242014B18703D
:1005E000704700BF071002404309012B074A01D1A1
:1005F000136803E0022B0CBF136A536A00F01F005C
:1006000033FA00F000F00100704700BF0010024014
:1006100007B5002301933120FFF7E6FF019B01336B
:100620000193019BB3F5A06F01D00028F3D03120D6
:10063000FFF7DAFF003818BF01200EBD024B5A6ADF
:1006400042F080725A62704700100240034B9B6870
:1006500018420CBF00200120704700BF001002406C
:10066000014B1870704700BF0A100240154B10B5BF
:1006700098420BD101214FF48050FFF78BFF4FF4CC
:1006800080500021BDE81040FFF784BF0E4B984218
:1006900007D14FF480400121FFF788FF4FF48040DD
:1006A00009E00A4B98420BD14FF400400121FFF7BB
:1006B0007DFF4FF400400021BDE81040FFF776BFFA
:1006C00010BD00BF0030014000380040003C004039
:1006D0000B8810B54C88028844EA03038C8802F426
:1006E00041522343CC8823430C8923434C89234321
:1006F0008C892343CC89234342EA03030380838B01
:1007000023F400631B041B0C83830B8A038210BD3C
:10071000838BF0B523F47A6323F01F031B041B0CB7
:100720008383022303848B6887B0022B04460D4623
:10073000868B23D001A88F88FFF7BEFEEB88002FA1
:1007400014BF02270127B3F5007F019A4FF00A0377
:1007500001D1120A02E07F01B2FBF7F25343A9680C
:100760000A22B3FBF1F305339BB2B3FBF2F303F0C0
:10077000010212025B089BB292B200E00022991EB5
:1007800089B2FE2928BF0022E98828BF022313432B
:100790000B4323842B886A8846EA030343F40063EF
:1007A0001343AA881343AA891343A38307B0F0BD58
:1007B0000023038043808380C3800381438183813E
:1007C000C3810723038270470023022203804380F2
:1007D0008380C38082608381704721B103889BB28C
:1007E00043F0400304E0038823F040031B041B0C88
:1007F0000380704721B1838B9BB243F4806304E094
:10080000838B23F480631B041B0C838370470909CB
:1008100001238B409BB21AB1828892B2134303E04A
:10082000828892B222EA0303838070471AB18388D8
:100830009BB2194303E083889BB223EA01018180C4
:10084000704781817047808980B270474FF6FF639F
:10085000994204D003889BB243F4807304E0038878
:1008600023F480731B041B0C0380704721B1838821
:100870009BB243F0040304E0838823F004031B04C9
:100880001B0C83807047038823F400631B041B0C3C
:10089000038003889BB241EA030303807047038807
:1008A0009BB243F480530380704721B103889BB20D
:1008B00043F4005304E0038823F400531B041B0C8F
:1008C00003807047012902D0008B80B27047808A74
:1008D00080B27047008A80B27047B1F5804F04D172
:1008E00003889BB243F4804304E0038823F48043ED
:1008F0001B041B0C03807047038919420CBF0020A6
:1009000001207047C94301817047012301F00F02A4
:1009100013FA02F210B584880089A4B280B21040A4
:1009200005D009098B401C420CBF0020012010BDDE
:1009300001F00F0101238B40DB430381704700BFAF
:1009400030B5048C24F001042404240C0484048BAA
:10095000058C24F0F30425F0020524042D04240C56
:100960002D0C42EA040445F0010544EA03140D434A
:100970000483058430BD30B5048C24F010042404B5
:10098000240C0484048B058C24F4407425F0200589
:1009900024052D04240D2D0C44EA022445F01005F5
:1009A00044EA033445EA01150483058430BD5A4BFB
:1009B00010B5984207D14FF400600121FFF7EAFD1E
:1009C0004FF40060A2E0B0F1804F05D10120014654
:1009D000FFF7ECFD012007E0504B984209D10220BF
:1009E0000121FFF7E3FD02200021BDE81040FFF7E1
:1009F000DDBD4B4B984205D104200121FFF7D6FD08
:100A00000420F1E7474B984205D108200121FFF768
:100A1000CDFD0820E8E7444B984205D11020012184
:100A2000FFF7C4FD1020DFE7404B984205D120209E
:100A30000121FFF7BBFD2020D6E73D4B984207D1AF
:100A40004FF400500121FFF7A5FD4FF400505DE089
:100A5000384B984207D14FF400200121FFF79AFD4F
:100A60004FF4002052E0344B984207D14FF48010ED
:100A70000121FFF78FFD4FF4801047E02F4B984284
:100A800007D14FF400100121FFF784FD4FF400104F
:100A90003CE02B4B984205D140200121FFF786FD19
:100AA0004020A1E7274B984205D180200121FFF784
:100AB0007DFD802098E7244B984207D14FF4807049
:100AC0000121FFF773FD4FF480708DE71F4B9842B3
:100AD00007D14FF480300121FFF75CFD4FF48030E7
:100AE00014E01B4B984207D14FF400300121FFF76F
:100AF00051FD4FF4003009E0164B98420BD14FF4F2
:100B000080200121FFF746FD4FF480200021BDE841
:100B10001040FFF73FBD10BD002C01400004004015
:100B200000080040000C004000100040001400408D
:100B300000340140004C014000500140005401408D
:100B400000180040001C0040002000400040014010
:100B500000440140004801401F4A038890420ED0E3
:100B60001E4A90420BD0B0F1804F08D01C4A9042F0
:100B700005D01C4A904202D01B4A904206D14FF643
:100B80008F7203EA02024B8842EA0303174A90423B
:100B900009D0174A904206D04FF6FF4203EA0202FC
:100BA000CB8842EA030303808B8883850B88038507
:100BB000094B98420BD0094B984208D00D4B9842F4
:100BC00005D00D4B984202D00C4B984201D10B7AC4
:100BD0000386012383827047002C014000340140CA
:100BE0000004004000080040000C004000100040DD
:100BF0000014004000400140004401400048014012
:100C0000038C70B523F001031B041B0C0384038CBD
:100C10008488028B0D8822F073021204120C2A437E
:100C20004E880D8923F002031B0446EA05051B0CC0
:100C3000ADB245EA0303154DA8420BD0144DA842AE
:100C400008D0144DA84205D0134DA84202D0134D30
:100C5000A84215D14FF6F77503EA05054B89CE89F1
:100C60001D434FF6FB7305EA03038D882B434FF6B4
:100C7000FF4504EA05058C8946EA0404A4B22C4326
:100C800084800283CA888286038470BD002C014060
:100C90000034014000400140004401400048014050
:100CA000038C30B523F010031B041B0C0384038C4E
:100CB0008488028B0D8822F4E6421204120C23F081
:100CC00020031B0442EA05220D891B0C43EA05138D
:100CD0004D8843EA0513124DA84202D0114DA84297
:100CE00017D14FF67F7503EA05054B8945EA0315D1
:100CF0004FF6BF7305EA03038D8843EA05134FF2ED
:100D0000FF3504EA05058C8945EA8405CC8945EA66
:100D1000840484800283CA880287038430BD00BFB4
:100D2000002C014000340140038C30B523F4807363
:100D30001B041B0C0384038C8488828B0D8822F097
:100D400073021204120C23F400731B042A430D894E
:100D50001B0C43EA05234D8843EA0523114DA842A5
:100D600002D0114DA84217D14FF2FF7503EA0505D5
:100D70004B8945EA03254FF6FF3305EA03038D88C7
:100D800043EA05234CF6FF7504EA05058C8945EA1C
:100D90000415CC8945EA041484808283CA8882873A
:100DA000038430BD002C014000340140038C30B579
:100DB00023F480531B041B0C0384038C8488828BD4
:100DC0000D8822F4E6421204120C23F400531B0493
:100DD00042EA05220D891B0C43EA05334D8843EA9C
:100DE00005330A4DA84202D0094DA84206D14BF660
:100DF000FF7504EA05058C8945EA841484808283A2
:100E0000CA88A0F84020038430BD00BF002C0140F8
:100E1000003401404A880B8842EA03038A8813435E
:100E2000CA8813430A8913434A8913438A8913439F
:100E3000A0F8443070474FF0FF33838000230380D5
:100E4000C380438003727047002303804380838004
:100E5000C380038143818381C381704700230122C2
:100E6000038043808280C380038170470023038016
:100E700043808380C380038143818381704721B194
:100E800003889BB243F0010304E0038823F00103CD
:100E90001B041B0C0380704731B1B0F844306FEA7B
:100EA00043436FEA534303E0B0F844305B045B0C08
:100EB000A0F8443070471AB183899BB2194303E00C
:100EC00083899BB223EA0101818170478182704747
:100ED0000A43A0F8482070471AB183899BB219438E
:100EE00003E083899BB223EA010181817047038972
:100EF00023F007031B041B0C0381704710B5048902
:100F0000E4B241EA040442EA040444EA032404810A
:100F100010BD10B50446FFF7F1FF23899BB243F4DF
:100F20008043238110BD10B50446FFF7E7FF2389F6
:100F300023F077031B041B0C43F07703238110BDC0
:100F4000018582827047038823F070031B041B0C09
:100F500041EA030303807047038923F070031B04F5
:100F60001B0C41EA03030381704738B50D46602D21
:100F70000446114603D10122FFF7FDFC02E00122E5
:100F8000FFF7DEFC20462946FFF7E6FF23899BB2E8
:100F900043F00703238138BD10B50446FFF7DCFF9B
:100FA00023899BB243F00703238110BD70B50489E8
:100FB000068B058C26F4407626F0030625F02205E4
:100FC00024F0070436042D042404360C2D0C240CC4
:100FD00046F4807642EA0505214346F0010645EADB
:100FE000031501810683058470BD038B23F0700314
:100FF0001B041B0C41EA030303837047038B23F498
:10100000E0431B041B0C43EA012303837047838BDB
:1010100023F070031B041B0C41EA03038383704716
:10102000838B23F4E0431B041B0C43EA01238383DB
:10103000704721B103889BB243F0800304E003882A
:1010400023F080031B041B0C0380704721B18388AD
:101050009BB243F0040304E0838823F004031B04E1
:101060001B0C8380704721B183889BB243F0080337
:1010700004E0838823F008031B041B0C8380704763
:1010800021B183889BB243F0010304E0838823F0FD
:1010900001031B041B0C83807047038B23F00803A0
:1010A0001B041B0C41EA030303837047038B23F4E7
:1010B00000631B041B0C43EA012303837047838BEB
:1010C00023F008031B041B0C41EA030383837047CE
:1010D000838B23F400631B041B0C43EA01238383EB
:1010E0007047038B23F004031B041B0C41EA03032A
:1010F00003837047038B23F480631B041B0C43EAB8
:10110000012303837047838B23F004031B041B0C10
:1011100041EA030383837047838B23F480631B04BA
:101120001B0C43EA012383837047038B23F0800366
:101130001B041B0C41EA030303837047038B5B040E
:101140005B0C43EA012303837047838B23F0800306
:101150001B041B0C41EA030383837047838B5B04EE
:101160005B0C43EA012383837047038C23F0020363
:101170001B041B0C41EA030303847047038C23F018
:1011800008031B041B0C41EA030303847047038C10
:1011900023F020031B041B0C43EA01130384704754
:1011A000038C23F080031B041B0C43EA011303840C
:1011B0007047038C23F400731B041B0C43EA0123C8
:1011C00003847047038C23F400631B041B0C43EA65
:1011D000012303847047038C23F400531B041B0C6E
:1011E00043EA01330384704701238B4012FA01F173
:1011F00010B5048CA4B224EA03030384038C41EAEF
:101200000303038410BD04238B4012FA01F110B5CF
:10121000048CA4B224EA03030384038C41EA03038D
:10122000038410BD30B501248C40058C00F11803F7
:10123000ADB225EA0404048409B1082906D149089D
:10124000C85820F07000C850C85809E0043989B265
:101250004908C858120220F4E040C850C85892B259
:1012600040EA0202CA5030BD21B103889BB243F06C
:10127000020304E0038823F002031B041B0C038019
:10128000704721B103889BB243F0040304E0038854
:1012900023F004031B041B0C0380704721B18388D7
:1012A0009BB243F0800304E0838823F080031B0497
:1012B0001B0C83807047038823F008031B041B0C5E
:1012C000038003889BB241EA03030380704783884D
:1012D00023F070031B041B0C838083889BB241EABC
:1012E000030383807047038923F007031B041B0C4F
:1012F000038103899BB241EA030303817047038999
:1013000023F080031B041B0C038103899BB241EA79
:10131000030303817047818470478185704781860C
:1013200070470187704781877047A0F84010704769
:10133000038B23F00C031B041B0C0383038B9BB256
:1013400041EA030303837047038B23F440631B04C8
:101350001B0C0383038B9BB243EA01230383704777
:101360002DE9F0410C46A2884988B4F800E0054612
:1013700000290CBF02270027012A14BF01260226DC
:101380002389BEF1000F10D1FFF7DAFA2846E18871
:10139000FFF7CEFF2846394632462389FFF7EBFA9E
:1013A000E1882846BDE8F041CEE7FFF7E4FA284699
:1013B000E188FFF7C9FF2846394632462389FFF7FF
:1013C000BFFAE1882846BDE8F041B1E7838B23F0FE
:1013D0000C031B041B0C8383838B9BB241EA030326
:1013E00083837047838B23F440631B041B0C83832C
:1013F000838B9BB243EA0123838370470B882DE9DB
:10140000F0410D4604464988AA883BB92B89FFF76D
:1014100097FAE9882046BDE8F04189E7042B07D117
:101420002B89FFF7A8FAE9882046BDE8F0418BE751
:10143000082BB5F8088023D1B0F820C02CF4807CAC
:101440004FEA0C4C4FEA1C4CA0F820C0878B068C4E
:1014500027F0F30726F400763F0436043F0C360CE1
:1014600047EA081746EA0121BFB289B247EA0202F9
:1014700041F4807182830184E988BDE8F041A5E7E9
:10148000078C27F480573F043F0C0784868B038C1E
:1014900026F4407623F400531B0436051B0C360D4E
:1014A00043EA013346EA02229BB2E98842EA08385D
:1014B00043F48053A0F81C800384BDE8F04191E719
:1014C000038823F440731B041B0C038003889BB226
:1014D00041EA030303807047808E80B27047008F1B
:1014E00080B27047808F80B27047B0F8400080B201
:1014F0007047808C80B27047008D80B27047038A3D
:1015000019420CBF002001207047C9430182704777
:10151000038A828911EA030092B203D011420CBF00
:10152000002001207047C9430182704701F100513A
:10153000013201F5405110B54900520808E010F899
:10154000014C10F8023C013A43EA042321F8043C20
:1015500002300431002AF2D110BD01F100510132F4
:1015600001F540514900520804E051F8043B013AAA
:1015700020F8023B002AF8D170470000014B1860A8
:10158000704700BF405C0040014B186880B2704754
:10159000405C0040014B1860704700BF445C004055
:1015A000014B186880B27047445C0040014B1868DA
:1015B00080B27047485C0040014B1860704700BF24
:1015C0004C5C0040014B186880B270474C5C004096
:1015D0004FF6F873024A00EA03031360704700BF36
:1015E000505C0040014B186880B27047505C00406E
:1015F000800000F1804000F5B84001607047800035
:1016000000F1804000F5B840006880B2704780006B
:1016100000F1804000F5B840026848F68F1302EAF6
:1016200003030B4303607047800000F1804000F526
:10163000B840006800F4C0607047800000F180404E
:1016400000F5B840026848F6BF7302EA030301F0F0
:10165000100292B20AB183F0100301F0200189B2A6
:1016600009B183F0200343F4004343F08003036097
:101670007047800000F1804000F5B84002684BF6EA
:101680008F7302EA030301F4805292B20AB183F429
:10169000805301F4005189B209B183F4005343F43B
:1016A000004343F080030360704738B50D4604469D
:1016B000FFF7A5FF012D08D1A40004F1804404F533
:1016C000B84420F48050206038BD022D07D1A4001A
:1016D00004F1804404F5B84420F01000206038BDC7
:1016E000800000F1804000F5B840006800F0300054
:1016F0007047800000F1804000F5B840006800F4B9
:1017000040507047800000F1804000F5B84002680A
:1017100048F6BF7302EA030383F0300343F4004347
:1017200043F0800303607047800000F1804000F5C3
:10173000B84002684BF68F7302EA030383F4405308
:1017400043F4004343F0800303607047800000F1DE
:10175000804000F5B840026840F60F6302EA0303D8
:1017600043F4004343F4C07303607047800000F10A
:10177000804000F5B840026840F60F6302EA0303B8
:1017800043F4004343F0800303607047800000F19E
:10179000804000F5B840026840F60F6302EA030398
:1017A00043F4004343F0800303607047800000F17E
:1017B000804000F5B840026840F60F6302EA030378
:1017C00043F4004343F4C07303607047800000F1AA
:1017D000804000F5B840026840F60F6302EA030358
:1017E00043F4004343F4C07303607047800000F18A
:1017F000804000F5B840026840F60F6302EA030338
:1018000043F4004343F0800303607047800000F11D
:10181000804000F5B840006800F03000A0F11003EF
:10182000584240EB03007047800000F1804000F513
:10183000B840006800F44050A0F58052504240EBA0
:1018400002007047800000F1804000F5B840026857
:1018500040F68F7302EA030303607047800000F1D3
:10186000804000F5B840026848F60F7302EA0303AF
:1018700003607047800000F1804000F5B8400268C6
:1018800040F60F7302EA030343F4404343F080033E
:1018900003607047800000F1804000F5B8400268A6
:1018A00040F60F7302EA030343F4004343F0C0031E
:1018B00003607047800000F1804000F5B840036885
:1018C00013F4804F09D0026840F60F7302EA030355
:1018D00043F4404343F0800303607047800000F10D
:1018E000804000F5B840036813F0400F09D002684B
:1018F00040F60F7302EA030343F4004343F0C003CE
:1019000003607047800000F1804000F5B840036834
:1019100041F4004140F60F7241F0800103EA0202F7
:1019200041EA020202607047800000F1804000F549
:10193000B840006800F00F007047084B4FF6FE7289
:101940001B6801EA02029BB203EBC00303F10053E0
:1019500003F540535B001A60704700BF505C0040C5
:10196000064B074A1B689BB203EBC0039A184FF65D
:10197000FE73520001EA030313607047505C00409D
:1019800004300020054B1B689BB203EBC00303F13E
:10199000005303F540535B0018887047505C0040CB
:1019A000044B054A1B689BB203EBC0039A18520014
:1019B00010887047505C004004300020044B054AFA
:1019C0001B689BB203EBC0039A185200116070476A
:1019D000505C0040023000203E2909D94B0911F02B
:1019E0001F0F01D1013B9BB29B0243F4004305E072
:1019F0004B0811F0010F18BF01339B0203607047C1
:101A00000D4B1A680D4B92B2D31803EBC0035B0069
:101A10003E2909D94A0911F01F0F01D1013A92B2AA
:101A2000920242F4004205E04A0811F0010F18BF8B
:101A3000013292021A607047505C0040063000206C
:101A4000054B064A1B689BB203EBC0039A18520071
:101A500010688005800D7047505C00400230002007
:101A6000054B064A1B689BB203EBC0039A18520051
:101A700010688005800D7047505C004006300020E3
:101A80000D4B30B51C681B68C0009BB2A4B2041992
:101A9000C0180A4B04F10054C3184FF6FE7501EA52
:101AA000050504F5405459004FF6FE73640002EA40
:101AB000030325600B6030BD505C00400430002003
:101AC000074B4FF6FE721B6801EA02029BB203EB62
:101AD000C00303F1005303F540535B001A607047E5
:101AE000505C0040064B074A1B689BB203EBC003E7
:101AF0009A184FF6FE73520001EA03031360704711
:101B0000505C004004300020054B1B689BB203EB87
:101B1000C00303F1005303F540535B00188870477E
:101B2000505C0040044B054A1B689BB203EBC003AA
:101B30009A18520010887047505C00400430002012
:101B4000012910B524D1254B25491B68C0009BB243
:101B5000591809184B003E2A09D9510912F01F0FD4
:101B600001D1013989B2890241F4004105E05108EF
:101B700012F0010F18BF013189021960174B196863
:101B8000184B89B2CB18181840003E2A1ED912E013
:101B9000022922D11149C0000C68114BA4B20419CA
:101BA000E3185B001A600B689BB2C0180D4BC3189A
:101BB0005B001A6010BD530912F01F0F01D1013BE9
:101BC0009BB29B0243F40043036010BD530812F024
:101BD000010F18BF01339B02036010BD505C004031
:101BE000023000200630002001291BD1134B196858
:101BF000134B89B2CB1803EBC00040003E2A09D931
:101C0000530912F01F0F01D1013B9BB29B0243F419
:101C1000004305E0530812F0010F18BF01339B0287
:101C200003607047022908D1044B1B689BB203EB89
:101C3000C000034BC3185B001A607047505C004043
:101C40000230002001291BD1134B1968134B89B2B4
:101C5000CB1803EBC00040003E2A09D9530912F00B
:101C60001F0F01D1013B9BB29B0243F4004305E0EF
:101C7000530812F0010F18BF01339B020360704735
:101C8000022908D1044B1B689BB203EBC000034B35
:101C9000C3185B001A607047505C0040063000209B
:101CA000054B064A1B689BB203EBC0039A1852000F
:101CB00010688005800D7047505C004002300020A5
:101CC000054B064A1B689BB203EBC0039A185200EF
:101CD00010688005800D7047505C00400630002081
:101CE0000D4BC0001A680D4992B282185118490074
:101CF0000A8812F47C4F0DD11B689BB2C018084BA8
:101D0000C3185B0018888005800D002814BF0220CE
:101D10000020704701207047505C004006300020D2
:101D20000230002001290FD1800000F1804000F531
:101D3000B840026840F60F7302EA030343F400431D
:101D400043F0C0030360704702290ED1800000F108
:101D5000804000F5B840026840F60F7302EA0303C2
:101D600043F4404343F080030360704741EA00209E
:101D70007047C3B2000A40EA0320704708B5054B1C
:101D800000201B681B68984700F0C0F800F02CF991
:101D9000FCE700BFE40000202DE9F041274D80461C
:101DA0002B680F46002B03DA01236B60013BAB600D
:101DB000D8F80C303846DB6F9847D8F80C303846E6
:101DC000D3F8983098471D4CAA68D8F80C300646CE
:101DD00004F10C018918D3F89C30384632469847F4
:101DE000D8F80C303846D3F89430012198470EB318
:101DF000A3689BB9237B0F2B08D80A2B04D1627BE5
:101E0000A37B07321B0207E0266007E013F0800F78
:101E100004D1A37B627B1B029B182360AA68074B3B
:101E2000B618AE602A68A968914203D31A6842F0D6
:101E300000421A600020BDE8F08100BF440100208C
:101E4000CB6810B55B6C02200C46984770B9E3680C
:101E500003305B6F984760B9E36803301B6F064936
:101E60009847002818BF6FF0050010BD6FF00500FF
:101E700010BD6FF0050010BD991D000873B51F4C13
:101E80002368002B38DA1E4D00202B6802469B6E1B
:101E90004FF480719847204650F80C1B2E4689B2AB
:101EA00004F072FA174B04F10C01D3F8142F32B17D
:101EB000D3F8142F42F00042C3F8142F00E0226040
:101EC0000025A560D3F8143F0E4CAB420DDAD4F8D0
:101ED000143F00919BB20C4802216A46019303F023
:101EE00059F9064B1D60C4F8145F33684FF48071D4
:101EF0009B6E00200A46984700207CBD44010020CC
:101F0000E40000203C12002028000020F7B54FF428
:101F1000A0600126FEF7A6F90024252301A88DF86C
:101F200004308DF805408DF8064002278DF80760D3
:101F3000FEF7A2F92A2301A8274D8DF804308DF869
:101F400005608DF806708DF80760FEF795F914238B
:101F500001A88DF804308DF805608DF806608DF8C5
:101F60000760FEF789F9132301A88DF804308DF876
:101F700006408DF805608DF80760FEF77DF92B6847
:101F800020461B6D98472B6830461B6D98472B6881
:101F900038461B6D98472B6820461B6D98472B6869
:101FA000082132469B6D204698472B684FF480717C
:101FB0000A469B6E20469847084B094C9B6D9847F4
:101FC000084803F04AFE04F15C0003F012FD2046CD
:101FD00002F0FBFFFEBD00BFE40000202866000801
:101FE0002800002054290020014803F01EB800BF3B
:101FF0002800002010B5034603E011F8014B03F858
:10200000014B013AF9D210BD30B5002307E0C55CA1
:10201000CC5C0133A54201D0281B30BD013A002A17
:10202000F5DC002030BD034602E003F8011B013A55
:10203000002AFADC7047000008B5034B1B68D3F890
:102040000832984708BD00BFE400002008B5034BE4
:102050001B68D3F80C32984708BD00BFE40000208D
:1020600008B5034B1B68D3F81032984708BD00BF72
:10207000E4000020002070470020704700207047D7
:1020800070B507294FF00F0502EA050409D88B0047
:102090009D409C40066826EA050545EA0403036066
:1020A0000AE0A1F108039B009D409C40466826EA97
:1020B000050545EA0403436012F0200F0BD012F02F
:1020C000100F4FF0010303D013FA01F1016170BD4D
:1020D00013FA01F1416170BD002814BF4FF0FF30C9
:1020E00000207047002814BF4FF0FF3000207047D9
:1020F000F8B5069E0C4615461F46002840F0DA80CB
:1021000021F4567323F00703134240F0D68021F4E4
:102110006A7323F00703934340F0D28011F0010F5C
:1021200021D012F0010F0BD0674B16F0010F4FF0CA
:10213000020214BF1A615A6163480121032210E0B0
:1021400017F0010F0AD016F0010F03D05E480121ED
:10215000382206E05C480121282202E05A48012189
:102160000422FFF78DFF14F0020F20D015F00201BA
:102170000BD0554B16F0020F4FF0010214BF1A613D
:102180005A615148002103220FE017F0020309D0E1
:1021900016F0020302D04C48382206E04A4819469D
:1021A000282202E0484819460422FFF769FF14F488
:1021B000807F13D015F4807F0BD0434B16F4807FC3
:1021C0004FF0800214BF1A615A613F480721032271
:1021D00002E03D4807210422FFF752FF14F0040FEC
:1021E00021D015F0040F0BD0384B16F0040F4FF42C
:1021F000007214BF1A615A6134480921032210E0A9
:1022000017F0040F0AD016F0040F03D02F4809214D
:10221000382206E02D480921282202E02B48092116
:102220000422FFF72DFF14F0080F21D015F0080F3E
:102230000BD0264B16F0080F4FF4806214BF1A61C2
:102240005A6122480A21032210E017F0080F0AD031
:1022500016F0080F03D01D480A21382206E01B485B
:102260000A21282202E019480A210422FFF708FF68
:1022700014F0100F04D0144805210322FFF700FFCB
:1022800014F0400F04D010480F210322FFF7F8FE8E
:1022900014F0200F04D00C480E210422FFF7F0FEAA
:1022A00014F080000ED0094806210422FFF7E8FE52
:1022B0000020F8BD4FF0FF30F8BD6FF00600F8BD0C
:1022C0006FF00600F8BD00BF000C0140000801409F
:1022D00010B5002855D121F47E7323F00703002B9D
:1022E00052D111F0010F07D0294B12F0010F00F16C
:1022F000020014BF1861586111F0020F07D0244B7F
:1023000012F0020F4FF0010014BF1861586111F470
:10231000807F07D01E4B12F4807F4FF0800014BFE7
:102320001861586111F0040F07D01A4B12F0040F16
:102330004FF4007014BF1861586111F0080F07D0F6
:10234000144B12F0080F4FF4806014BF18615861ED
:1023500011F0100F07D00E4B12F0100F4FF02000AD
:1023600014BF1861586111F040000FD012F0400006
:10237000074B4FF4004402D01C61002010BD5C618B
:1023800010BD4FF0FF3010BD6FF0060010BD00BF54
:10239000000C01400008014000284CD121F46A7370
:1023A00023F00703002B49D111F0010303D0264B82
:1023B0009B68C3F3400311F0020F06D022488068E7
:1023C00010F0010F18BF43F0020311F4807F06D014
:1023D0001D48806810F4007F18BF43F4807311F02B
:1023E000040F06D01948806810F4007F18BF43F02E
:1023F000040311F0080F06D01448806810F4806FB1
:1024000018BF43F0080311F0200F06D00E48806873
:1024100010F4804F18BF43F0200311F0800F06D056
:102420000A49896811F0400F18BF43F0800342B198
:102430001360002070474FF0FF3070476FF00600C8
:1024400070471046704700BF000C01400008014073
:1024500010B9034802F0CEBA4FF0FF30704700BF0A
:10246000B000002010B9034802F0DABA4FF0FF3094
:10247000704700BFB000002010B59DF8082000286C
:1024800027D1154C012A616284F82900214602D027
:10249000022A05D101E0602200E0402284F82920D0
:1024A000012B03D0022B06D008230BE091F8293032
:1024B00043F0030303E091F8293043F0020381F86D
:1024C00029300923044881F82830BDE8104002F083
:1024D000B1BA4FF0FF3010BDB000002007B538B9D9
:1024E00049B1009105486946019202F0C7FA04E03B
:1024F0004FF0FF3001E06FF008000EBDB00000208B
:1025000007B538B949B1009105486946019202F012
:10251000ABFA04E04FF0FF3001E06FF008000EBDB1
:10252000B000002038B50C46054690B9A1B10C4862
:1025300003F08EFA20600A4803F080FA60600948D0
:1025400003F086FAA060074803F078FAE0602846B6
:1025500038BD4FF0FF3038BD6FF0080038BD00BF08
:10256000B4000020C400002010B9034802F095BA5E
:102570004FF0FF30704700BFB0000020002370B55F
:102580001A461EE0124C202626616661A468ED08FA
:1025900014F4007F03F007040AD01F3E16FA04F477
:1025A000ADB2465D013246EA04044455D2B207E0BA
:1025B000012616FA04F4ADB2465D26EA0404445539
:1025C00001339DB28D42DDD302F0010070BD00BF2A
:1025D000000C0140002330B51A4615E0E408055D03
:1025E00003F0070455FA04F414F0010F4FF08005CE
:1025F000084C03D001322561D2B200E06561054C80
:1026000020252561013365619CB28C42E6D302F03E
:10261000010030BD000C01402DE9F74F00250446B4
:1026200001912E4633E01E4F1E4BDFF87CA04FF089
:10263000200BD3F86090C7F810B0BAF80000C84774
:10264000C7F814B0BB684FEAD80813F4007F05F050
:1026500007030DD0012212FA03F31FFA88F814F8C9
:102660000820013642EA030304F80830F6B20AE013
:10267000012212FA03F31FFA88F814F8082022EA5C
:10268000030304F80830BAF80000C8470135019B7D
:102690001FFA85F89845C6D306F00100BDE8FE8F05
:1026A000000C014028660008543100202DE9F84F45
:1026B000002504468B462E4623E0DB08E25C05F04D
:1026C000070352FA03F313F0010F4FF08002104B8F
:1026D00003D001361A61F6B200E05A610D4BDFF803
:1026E00038A00B4FD3F860904FF02008BAF80000E4
:1026F000C847C7F81080BAF80000C8470135C7F8C6
:102700001480ABB25B45D8D306F00100BDE8F88F6A
:10271000000C0140286600085431002007B5002352
:1027200002A840F8043D024B08215B6898470EBDA3
:10273000543100202DE9F04F00F0040B87B088469B
:102740008DF807005FFA8BFB00264B4D80274B4C22
:102750000322284607212F61FFF792FC63680821B6
:102760000DF107009847042228460721FFF788FC4F
:10277000D8F80030DFF808911A0A8DF808308DF883
:1027800009201A0C1B0E8DF80A208DF80B30BBF1B6
:10279000000F1DD0A368032104A89847A368202137
:1027A00002A89847A36882468DF81700012103A864
:1027B000984750448DF8170099F80010A36803A8B3
:1027C00098472F61284607210322FFF759FC19E09B
:1027D00099F80010A368033104A8984728460322FB
:1027E0002F610721FFF74CFC6368202102A898475E
:1027F000054606A800F8015D636801219847401965
:102800008DF81700FFF78AFF04221B480721FFF706
:1028100037FC9DF80A309DF809201B0443EA022387
:102820009DF80820049813439DF80B2000F0070042
:1028300043EA02630228C8F8003004900CD0042850
:1028400015D0012810D19DF8170000F001000028D4
:1028500014BF112001200BE00136A389B6B2B342A8
:102860003FF673AF422003E040F0200000E08420F8
:1028700007B0BDE8F08F00BF000C014054310020CC
:10288000E00000200721042210B50648FFF7F8FBFE
:1028900004482023052103220361BDE81040FFF70F
:1028A000EFBB00BF000C01400721042210B5054812
:1028B000FFF7E6FB034805210422BDE81040FFF7BF
:1028C000DFBB00BF000C0140064B20B9064A9A60EE
:1028D000064A5A607047064A01389A60054A1880CD
:1028E0005A607047543100207D250008D525000826
:1028F00019260008AD2600080E289CBF014B187051
:10290000704700BFE0000020014B9881704700BF76
:1029100054310020002814BF4FF0FF3000207047D2
:1029200010B5044618B9FFF7BFFF204610BD4FF0A1
:10293000FF3010BD70B514461E46054660B9084606
:10294000FFF7DAFF2046FFF7DFFF3046FFF7BCFF57
:10295000FFF798FF284670BD4FF0FF3070BDF8B507
:102960000E4617460546A0B9B1B10D4C802303228F
:10297000236120460721FFF783FB0A4B39465B683A
:1029800030469847204607210422FFF779FB284666
:10299000F8BD4FF0FF30F8BD6FF00800F8BD00BF84
:1029A000000C01405431002038B50B46044638B9BC
:1029B00049B1064918468D681146A847204638BDDA
:1029C0004FF0FF3038BD6FF0080038BD54310020A3
:1029D00038B51C46054640B952B108461146FFF7C6
:1029E000A9FE44B12070284638BD4FF0FF3038BDF5
:1029F0006FF0080038BD204638BD00BF002070478A
:102A000001220023824205D001331F2B01D0520046
:102A1000F8E7002318467047014B03600020704719
:102A2000E800002000207047054A064BD16801F4F9
:102A3000E06141EA0303D360BFF34F8FFEE700BFBD
:102A400000ED00E00400FA0570B5614C48B106469F
:102A500025460FCE0FC50FCE0FC596E8030085E8BB
:102A6000030022785A4B012A03D002D3022A04D150
:102A700001E0584A00E0584A5A622278544B012A31
:102A800005D05A781AB1012A01D09B78A3B9534BCB
:102A90001A6842F480321A60E2781AB91A6842F46D
:102AA000802202E01A6822F480221A604B4B1B68D5
:102AB00013F4003FFAD004E0484B1A6822F4803245
:102AC0001A60474B454D12221A606B6823F47E53FF
:102AD00023F070036B60666AE068B6FBF0F0FFF706
:102AE0008FFF30B16B68013840F0080043EA0010F6
:102AF00068602069B6FBF0F0FFF782FF38B1374B12
:102B000001385A6840F0040042EA002058606069C9
:102B1000B6FBF0F0FFF774FF38B1304B421E596836
:102B200042F0040241EAC2225A60A368284A002BFC
:102B30002AD02A4B596821F47C1159605178012917
:102B40000AD004D3274B022908BF18460AE0506870
:102B50005A6842F4803204E050685A68400842F4EF
:102B600040325A601D4BA1685A68B1FBF0F0023840
:102B700042EA804058601A6842F080721A60174B2F
:102B80001B6813F0007FFAD0144B5A6822F003023E
:102B90005A605A6842F002025A60104B5A68920812
:102BA00002F00302022AF8D19A6994F8201042F048
:102BB00001029A610C4B00205A6822F0E0625A60D0
:102BC0005A6842EA01625A60E269084B9A6070BD35
:102BD000E800002000127A0000A24A04001002401F
:102BE0000020024000093D000000014000ED00E02F
:102BF000024B042200201A609860704710E000E049
:102C000038B5044612E00B4B6FF07F45AC4238BF3D
:102C100025465D601A6842F001021A60054B1B6888
:102C200013F4803FFAD0FFF7E3FF641B002CEAD1D6
:102C3000204638BD10E000E008B5054B5A6A054B48
:102C4000B2FBF3F35843FFF7DBFF002008BD00BFE2
:102C5000E800002040420F0008B5054B5A6A4FF4C7
:102C60007A73B2FBF3F35843FFF7CAFF002008BDA5
:102C7000E800002004218140034B00209A6941EACA
:102C800002029A61704700BF001002400421814097
:102C9000054BC9439A69002001EA02029A61DA6889
:102CA0001140D960704700BF00100240800200F15F
:102CB0008040072970B502F00F0300F584304FF013
:102CC0000F050AD88C00A54013FA04F4066826EA1A
:102CD000050545EA040404600BE0A1F10804A40022
:102CE000A54013FA04F4466826EA050545EA0404FB
:102CF0004460082B0BD112F0800FA3F1070303D01F
:102D000013FA01F1016102E013FA01F141610020BF
:102D100070BD800200F180402DE9F04F00F5843055
:102D20008B460568099944684FF0020C00264FF065
:102D3000010909FA06F717EA0B0F26D04FEA860AAF
:102D40004FF00F0808FA0AF8174225EA08080ED0D3
:102D5000032505FA0AF548EA050501EA030818EA19
:102D6000070F0ED009FA0CF945EA090509E01F42E0
:102D700003D0102505FA0CF501E009FA0CF548EA34
:102D800005050F4214BF0761476106F108074FF0C0
:102D9000010808FA07F717EA0B0F27D04FEA860851
:102DA0004FF00F0909FA08F9174224EA090910D06F
:102DB000032404FA08F449EA040401EA030919EABD
:102DC000070F0FD04FF0040909FA08F844EA080485
:102DD00008E01F4201D0082400E0042404FA08F4AB
:102DE00049EA04040F4214BF076147610136082E07
:102DF0000CF1040C9BD1056044600020BDE8F08F0D
:102E0000800200F1804000F58430016100207047AD
:102E1000800200F1804000F584304161002070475D
:102E2000800200F1804000F5843002EA010321EACB
:102E300002010361416100207047800200F180407F
:102E400000F584308368002001EA030313607047B3
:102E5000800200F1804000F58430806801EA0000C3
:102E6000704700BF37B52C4C054600212022204674
:102E7000FFF7D9F80021202204F12000FFF7D3F852
:102E80000021102204F14000FFF7CDF800211022AC
:102E900004F15000FFF7C7F80021082204F1600098
:102EA000FFF7C1F804F1680000210822FFF7BBF822
:102EB00001A82567FFF7B0FD40BB019B174A5B6A7D
:102EC000934207D0164A934223D1164B5A6822F4F4
:102ED000800203E0134B5A6842F480025A60114B9F
:102EE0000120DA6942F40002DA61FEF747FB0020B4
:102EF000FEF744FB0020FEF74DFB4FF43C40FEF78D
:102F00003DFB0020FEF764FB002004E06FF00500AD
:102F100001E06FF006003EBD64310020006CDC0271
:102F200000A24A040010024008B50120FEF726FB6B
:102F30000020FEF72FFB0320FEF720FB002008BD3A
:102F40000020704700207047002070470020704725
:102F500038B505460024204621460134E4B2FEF788
:102F6000D1FC082CF7D145F08000FEF725FB0020AE
:102F700038BD024B186800F07F0070474C5C004081
:102F800000207047002070470020704708B5FEF70A
:102F90000DFB4005400D08BD0020704710B50446EC
:102FA00003291BD8DFE801F0020A0D154FF4007168
:102FB000FEF72DFB2046FEF7E9FB08E04FF4C06169
:102FC00009E00021FEF723FB2046FEF70FFC00205E
:102FD00010BD4FF48061FEF71AFBF8E76FF00600B2
:102FE00010BD08B5FEF720FBB0F5806F07D0B0F537
:102FF000C06F06D000280CBF0220002008BD0320AF
:1030000008BD012008BD072804D8044B43F8201050
:10301000002070476FF00600704700BF6431002049
:10302000024B1B1893F86000704700BF643100200A
:1030300008B50221FEF776FE002008BD70B511F03C
:103040000706054612D10C4C2288521A3F2A10DD81
:1030500022800A4A02EB4002A2F84010FEF7AEFCC2
:1030600028462188FEF769FC304670BD6FF00400E9
:1030700070BD6FF0040070BD1001002064310020AD
:10308000024B03EB4003B3F840007047643100206B
:1030900038B50446FFF7F4FF164D2B881B1A3F2B5B
:1030A00025DD20462B80FEF791FB2046FEF76AFCCB
:1030B0002A8801462046FEF7E3FC00220221204632
:1030C000FEF73EFD2046FEF7F5FB2046FEF706FC28
:1030D00020460021FEF7CDFA20462021FEF7ADFA6A
:1030E000054B00201C19012384F8603038BD6FF0B7
:1030F000040038BD100100206431002008B5FEF73F
:10310000EDFB002008BD08B5FEF7C4FB002008BD9C
:1031100008B503290ED8DFE801F00204060B1021E0
:1031200002E0302100E02021FEF787FA002008BDF0
:103130000021F9E76FF0060008BD08B5FEF7D0FAE8
:10314000103880B220289ABF014B185C032008BDBC
:103150003869000838B50E4B04461B1893F86030E8
:103160000D4683B1FEF74BFA10F4804F05D0204690
:1031700002212A46FEF766FD07E0204602212A4684
:10318000FEF732FD01E0FEF719FC002038BD00BF5C
:10319000643100200F4B70B51B1893F86030044663
:1031A0000E46154663B1FEF72AFA10F4804F03D09D
:1031B0002046FEF7B7FC05E02046FEF7A5FC01E03F
:1031C000FEF7E0FB014689B230462A46FEF7AEF92B
:1031D000002070BD64310020072805D8044B03EBA4
:1031E00080000162002070476FF00600704700BF4A
:1031F00064310020024B1B1893F86800704700BF31
:103200006431002008B50121FEF78CFD002008BDC7
:1032100070B511F00706054612D10C4C2288521ADF
:103220003F2A10DD22800A4A02EB4002A2F8501029
:10323000FEF7E6FB28462188FEF792FB304670BD7C
:103240006FF0040070BD6FF0040070BD100100202D
:1032500064310020024B03EB4003B3F85000704789
:103260006431002070B50446FFF7F4FF194E05469F
:1032700033881B1A3F2B29DD20463380FEF7A6FA40
:103280002046FEF78DFB328801462046FEF7F8FB0C
:103290002A4601212046FEF753FC2046FEF70AFB92
:1032A0002046FEF71BFB2046FEF7F4FA20464FF4BB
:1032B0004051FEF7DEF920460021FEF7BEF9064B2D
:1032C00000201C19012384F8683070BD6FF00400E1
:1032D00070BD00BF100100206431002008B5FEF76A
:1032E000E9FA002008BD08B5FEF7C4FA002008BDC1
:1032F00008B5032911D8DFE801F00205080E4FF4E4
:10330000805104E04FF4405101E04FF40051FEF7CA
:10331000B0F9002008BD0021F9E76FF0060008BDF4
:1033200008B5FEF7E6F9B0F5005F0AD0B0F5405FEA
:1033300005D0B0F5805F14BF0320002008BD012038
:1033400008BD022008BD0D4B10B51B1893F868305E
:10335000044673B1FEF753F910F0400F04D0204635
:10336000BDE81040FEF7ACBC2046BDE81040FEF7BB
:1033700097BCBDE81040FEF773BB00BF643100206E
:103380000F4B70B51B1893F8683004460E4615466F
:1033900063B1FEF734F910F0400F03D02046FEF77A
:1033A000C1FB05E02046FEF7AFFB01E0FEF7F8FAAF
:1033B00001462A463046FEF7D0F8002070BD00BF17
:1033C0006431002037B50023ADF806305AE011F023
:1033D0000F052BD111F010012E4B08D1186848F6BB
:1033E0000F7200EA02021A602B4A13681BE01A6887
:1033F000ADF80620196840F68F7201EA02021A60E1
:10340000BDF8061011F4006106D0234B186F03B00D
:10341000BDE8304001F042BFBDF806301BB2002BC2
:1034200036DA1D4A136A106F984731E0A90001F19E
:10343000804404F5B8442368ADF80630BDF8063082
:103440001BB2002B0CDA226840F68F7302EA0303EA
:10345000114A236051180B6A13B1106F294698471F
:10346000BDF8063013F0800F0CD0226848F60F73B9
:1034700002EA0303084A236052F8253013B1106FA3
:1034800029469847054B196889B211F4004F9ED11F
:1034900003B030BD005C004064310020445C00405B
:1034A00010B527E001F00F0147F6FF7288001A609F
:1034B00000F1804303F5B8431A6892B212F4004F4A
:1034C00009D01C6840F68F7204EA02021A600D4AA5
:1034D0001018036A0BE012F0800F0BD0186848F642
:1034E0000F7200EA02021A60064A52F821300BB14C
:1034F000106F9847044B196889B211F4004FD1D16D
:1035000010BD00BF64310020445C00402C4B10B55E
:103510001C68A4B214F4806F0AD04FF6FF321A6010
:10352000284B4FF400721A80274B186F01F04EFFA2
:1035300014F4804F03D0224B4BF6FF721A6014F440
:10354000005F08D01E4B4DF6FF721A601E4B002123
:10355000186F02F02DF814F4805F07D0184B4EF668
:10356000FF721A60184B186F02F004F814F4006F21
:1035700007D0154B186F02F003F8114B4FF2FF7292
:103580001A6014F4007F07D00D4B4FF6FF521A60FB
:103590000D4B186F02F006F814F4807F08D0084B2A
:1035A0004FF6FF621A60084B0221186F02F000F814
:1035B00014F4004F02D0BDE8104003E710BD00BF77
:1035C000445C004010010020643100209EE767E762
:1035D000704700BF020910F00F0002D001281DD172
:1035E00010E0124B012A996941F48051996117D179
:1035F0000F4A516841F0010151609A6942F0080296
:103600009A617047094BD96941F48041D96152B937
:103610009969104641F00801996170470020704790
:103620004FF0FF3070474FF0FF30704700100240FE
:103630000000014008B5030910F00F0002D0012876
:103640002ED114E01D4A012B916921F48051916122
:103650002DD11B4B1A6822F4704242F480421A604A
:103660001A6822F4702242F480221A6018E0134A89
:10367000D16921F48041D161E3B9114B5A6822F438
:10368000700242F480025A605A6822F0706242F07E
:1036900080625A605A6822F0704242F080425A605A
:1036A000084B53F82000FCF7E1FF002008BD4FF065
:1036B000FF3008BD4FF0FF3008BD00BF00100240D2
:1036C000000C01405C690008054B00F00F0053F846
:1036D000203000201A8892B242F040021A807047CF
:1036E0005C690008064B00F00F0053F82020002012
:1036F000138823F040031B041B0C1380704700BF8A
:103700005C69000837B5044601A80D46FFF784F947
:10371000A0B914F00F0402D0022C07D802E0019BDC
:103720005B6901E0019B1B696B602B602B680020CB
:103730005B082B606B681B0A6B6001E06FF0050093
:103740003EBD2DE9F341584B00F00F07044601A898
:103750000D46904653F82760FFF75EF9002840F0C9
:103760009C8008F004012409C9B21FB1012F40F068
:10377000978023E0019B012C5A694FF47A73B2FBC6
:10378000F3F240F08D80494B59B1186820F4704035
:1037900040F430401860186820F4702040F4802015
:1037A0000AE0186820F4704040F4804018601868FF
:1037B00020F4702040F4302018602DE0019B1A693D
:1037C0004FF47A73B2FBF3F2002C69D1374B89B115
:1037D000586820F4700040F430005860586820F0B9
:1037E000706040F080605860586820F0704040F091
:1037F000304010E0586820F4700040F480005860B9
:10380000586820F0706040F030605860586820F0D0
:10381000704040F080405860338823F040031B0420
:103820001B0CB5EB520F338014D2B5EB920F13D2B1
:10383000B5EBD20F12D2B5EB121F11D2B5EB521F5E
:1038400010D2B5EB921F0FD8B5EBD21F94BF072350
:1038500006230AE0002308E0012306E0022304E037
:10386000032302E0042300E0052348F4007848EA3B
:10387000C303338021B133889BB243F48073338018
:10388000B38B002023F400631B041B0CB383338829
:103890009BB243F04003338004E06FF0050001E089
:1038A0004FF0FF30BDE8FC815C690008000C01406E
:1038B000034B00F00F0053F820300020998170472F
:1038C0005C690008064B00F00F0053F820301B899C
:1038D00003F00203002B0CBF6FF0010000207047C3
:1038E0005C690008064B00F00F0053F820301B897C
:1038F00003F00103002B0CBF6FF0010000207047A4
:103900005C690008034B00F00F0053F820309889E1
:10391000C0B270475C69000830B51D4C00F00F0064
:1039200054F82000C1B9A2B907E0FF2181810189C3
:1039300011F0010FFBD0818901329A42F5D124E0C8
:10394000FF248481048914F0010FFBD0848954542E
:1039500001319942F4D118E04AB1002413E08C5CA3
:103960008481048914F0010FFBD0848901329A42CA
:10397000F5D10AE00D5D8581058915F0010FFBD0B9
:103980008589155501349C42F4D1002030BD00BF1B
:103990005C69000800F00F0030B51A4C012854F89B
:1039A000204023D002D302282AD124E016484569BA
:1039B00045F0010545615AB1144880250560436012
:1039C000A589ADB28560C260026842F00102026062
:1039D000B1B10F4A902010605360A3899BB29360ED
:1039E000D160136843F00103136009E0064B5A6984
:1039F00042F0010203E0044B5A6942F002025A61AC
:103A0000002030BD5C690008001002401C0002402C
:103A1000300002400020704700207047102832D844
:103A2000DFE800F0090E0E0E0E0E0E131919191F05
:103A30001F1F28282800154BDA6842F4006208E0AE
:103A4000124B01381A6901210FE0104BDA6842F479
:103A50000052DA6017E00D4B0838DA684FF40021A5
:103A60000DE00A4B0B381A69402111FA00F010439F
:103A7000186108E0054B0E38DA684FF4803111FA0E
:103A800000F01043D8600020704700BF00100240D3
:103A900008B5034B53F82000FCF789FF002008BD50
:103AA0006469000800207047044B53F82030002060
:103AB0001A8892B242F001021A80704764690008C5
:103AC000054B53F820200020138823F001031B042A
:103AD0001B0C1380704700BF64690008034B53F848
:103AE000203000209B8C9BB20B60704764690008FB
:103AF000024B53F820300020998470476469000815
:103B000000207047044B53F820300020343333F842
:103B100031301360704700BF64690008034B53F8ED
:103B200020300020343323F83120704764690008C6
:103B3000064B10B553F82030044603B198470123D3
:103B400013FA04F4024B5C6110BD00BFD8310020B1
:103B50000004014000F0030130B589000F248C40BF
:103B600000F00F02000910FA01F1074B920802322F
:103B700053F8225000202C4043F8224053F82240B2
:103B8000214343F8221030BD0000014000F00F0037
:103B900001218140074BC9431A68002001EA020253
:103BA0001A605A6801EA02025A605A69114359615F
:103BB000704700BF00040140F0B500F00F00012481
:103BC000844001F0020511F0010FEDB21B4B1C4FB8
:103BD00002D1E64335B925E0DE6844EA0606DE6038
:103BE00045B102E0DD682E40DE60144B9D6844EA7A
:103BF000050502E09D6825EA04059D6001F00403C7
:103C0000DBB247F8202023B10C4B5A6844EA020289
:103C10005A6001F00801C9B269B1084B1A6814432F
:103C20001C6008E01A6806EA02021A605A68164028
:103C30005E6047F820500020F0BD00BF0004014046
:103C4000D8310020012100F00F0011FA00F0034BE1
:103C50001A6840EA02021A6000207047000401401E
:103C6000012100F00F0011FA00F0034B1A6822EA5C
:103C700000021A600020704700040140012100F09A
:103C80000F0011FA00F0034B1A6940EA02021A61B0
:103C90000020704700040140002049E7012047E769
:103CA000022045E7032043E7042041E738B500251B
:103CB00005246B1D012010FA03F3084A11680B421A
:103CC00005D05269134202D02046FFF731FF01347C
:103CD000E4B201350A2CECD138BD00BF000401402C
:103CE00038B500250A24012005F10A0310FA03F370
:103CF000074A11680B4205D05269134202D0204690
:103D0000FFF716FF0134E4B20135102CEBD138BDBA
:103D100000040140154B53F8202010B1012821D197
:103D20000CE0134BD96841F40071D960D96821F4D3
:103D30000071D960996941F400710BE00C4BD968AE
:103D400041F48061D960D96821F48061D9609969B2
:103D500041F48061996100204FF4006353609060EA
:103D6000D06270474FF0FF30704700BFA86900086D
:103D70000010024010B101280DD105E0074B9A69EF
:103D800022F400729A617047044B00209A6922F471
:103D900080629A6170474FF0FF3070470010024018
:103DA00073B5044601A80D461646FEF735FEB0B9B8
:103DB0000C4B360253F824200B4B019C596846F4F7
:103DC000C02621F44041596064695968B4FBF5F597
:103DD0006D08013D41EA85355D60966001E06FF058
:103DE00005007CBDA869000800100240274B072988
:103DF00070B553F8203008D82548846944F004048D
:103E0000846124488C0005680BE009291CD82048EF
:103E1000846944F0080484611F48A1F1080405681E
:103E2000A4000F2616FA04F425EA0404046001EB4A
:103E3000410107208840520912FA01F11C6924EA65
:103E40000000014319611FE00F290FD810480F2609
:103E5000846944F010048461A1F10A04A40016FAF4
:103E600004F40E48056825EA0404046001EB4101EE
:103E70001E3907208840520912FA01F1DC6824EA51
:103E8000000040EA0101D960002070BDA869000867
:103E90000010024000080140000C014000100140E9
:103EA0000C4B53F8203059639A6842F001029A6033
:103EB0009A6842F008029A609A6812F0080FFBD1E3
:103EC0009A6842F004029A60986810F00400FBD1EE
:103ED000704700BFA8690008064B53F82030002047
:103EE00059631A6822F002021A609A6842F00102CD
:103EF0009A607047A8690008054B53F820301B688A
:103F000003F00203002B0CBF6FF00100002070478C
:103F1000A8690008024B53F82030D86C704700BFE6
:103F2000A869000810F00F0F1DD1114B00099A6904
:103F300042F480429A6118D10E4A516821F004017E
:103F400051609A6942F004029A610B4B5A6822F060
:103F5000F00242F0B0025A605A6822F4706242F4F1
:103F600080625A607047002070474FF0FF30704702
:103F7000001002400000014000080140134A00F018
:103F80000F0352F8232000219181CBB9104B000977
:103F90009A6922F480429A6114D10E4B5A6822F039
:103FA00004025A600C4B5A6822F49E6242F480620A
:103FB0005A605A6822F49E4242F480425A60704726
:103FC000002070474FF0FF30704700BFB469000811
:103FD0000010024000000140000801402DE9F341BB
:103FE0001F461E4B00F00F0801A80C46154653F85B
:103FF0002860FEF711FD30BBB289B8F1000F25D162
:10400000019B02F0A002082D596942F00C0305D073
:10401000092D1ED142F4805343F00C037A0202F4BE
:10402000C0621343B1FBF4F4FF01348107F4585725
:10403000B381002337823382B38900209BB243F4DB
:104040000053B38107E06FF0050004E04FF0FF304C
:1040500001E06FF00600BDE8FC8100BFB469000814
:1040600030B50F4D0F4C00F00F0045F8202054F8EC
:10407000204005EB8000C3608161002A14BF8022CC
:1040800000220BB142F02002A389002023F0A003FC
:104090001B041B0CA381A3891A43A28130BD00BF5E
:1040A00018320020B4690008034B00F00F0053F8E9
:1040B0002030002099807047B4690008064B00F05A
:1040C0000F0053F820301B8803F04003002B0CBF77
:1040D0006FF0010000207047B4690008034B00F046
:1040E0000F0053F82030988880B27047B4690008F8
:1040F000064B00F00F0053F820301B8803F020031C
:10410000002B0CBF6FF0010000207047B46900085D
:1041100010B50B4CE36843B10A4A118811F0200F27
:1041200003D09188A06989B2984723683BB1054ABA
:10413000128812F0800F02D0014A9069984710BD92
:10414000183200200038014010F00F0030B557D170
:104150002D4B2E4C9A6942F4F0729A615A6942F4DE
:1041600080725A612A4B1A6822F47F0242F43B02A1
:104170001A601A6822F0FF0242F0BB021A60254A58
:10418000116821F0704141F030411160596801EA35
:104190000404214944EA010159604FF0BB315160E8
:1041A0001E491F4C0D6805F07F4545EA04040C606C
:1041B0004C68A4B244F03B4444F43B044C601949BD
:1041C000174C0D6805F07F4545EA04040C605C68F7
:1041D00024F47E0424F4F83444F43A0444F4D83447
:1041E0005C601368104C03EA0404104B44EA0303B8
:1041F00013604B6823F07F6343F03B634B6030BD3B
:104200004FF0FF3030BD00BF0010024000F0FF0053
:104210000014014000180140BB0B00BB001C014012
:10422000BBBBBB0000200140FF0000F000BBBB0B8C
:1042300010F00F0005D1044B5A6922F480725A61C4
:1042400070474FF0FF3070470010024010F00F0031
:1042500018BF4FF0FF30704710F00F0018BF4FF03D
:10426000FF307047F7B5044601A80D46FEF7D4FBB2
:10427000002840F0BB8014F00F0F40F0BA80A40972
:10428000032C00F2B680DFE804F0020A11185D4B3F
:104290001A6822F0704242F030421A6014E05A4B21
:1042A0005A6822F0F00242F0B0020CE0564B5A6815
:1042B00022F4706242F4306205E0534B5A6822F4F3
:1042C000702242F430225A602B6933B14F4B1A6886
:1042D00022F0704242F030421A602B794BB1494BC8
:1042E0001A6822F4704242F430421A6041F24B03E1
:1042F00001E041F249036A78C2B14249013A0868D3
:1043000020F0706040F030600860032A74D8DFE865
:1043100002F00205080B43F4285307E043F4085366
:1043200004E043F4205301E043F400532A78082AC0
:1043300003D0102A60D143F01003296951B1019ACA
:10434000D268B2FBF1F2D2B2901EC0B20E2856D89B
:10435000013A00E00A466F89AE89013F3F01701EB5
:1043600007F0FF07000647EA10402F8902F00F020E
:10437000013F07F00F07384340EA0250EA6940F076
:1043800080508A4206D16F69A9688F4202D1298B79
:10439000B1421CD040F480401AB10199C968B1FB08
:1043A000F2F2EE8A298B013EAD8A3601013906F020
:1043B000FF060906013D46EA114105F00F052943B4
:1043C00002F00F0241EA025242F0805201E06FF027
:1043D000704264004FF02041651C41F825000C48F4
:1043E00040F8242041F8243000200AE06FF0050056
:1043F00007E04FF0FF3004E06FF0060001E06FF0DF
:104400000700FEBD0014014000200140000C0140E7
:10441000040100A010F00F0F30B540F08B804A4B24
:1044200000095A6800F0030022F47F2242F43B2284
:1044300001285A6002D002287CD106E01A6822F0D6
:10444000704242F030421A6006E0404B5A6822F057
:10445000F00242F0B0025A600B7B4A7B013B013A0A
:1044600003F00F035B0302F00F020C7A43EA4222CF
:1044700042F00C033CB34C8942F04C03B4F5806F1E
:1044800014D006D8B4F5807F1DD0B4F5007F54D188
:1044900009E0B4F5805F0FD0B4F5005F0FD0B4F53C
:1044A000006F4AD105E042F400330AE042F4802371
:1044B00007E042F4C02304E042F4002301E042F4A8
:1044C000202343F04C034A7842B11F4A43F00203D1
:1044D000146824F0706444F0306414600A78082A88
:1044E00003D0102A29D143F01003CA898C7C013AE9
:1044F00042EA0442CC7C0D7E42EA04620C8A013C12
:1045000042EA04248A8A013A42EA05424D7EC98A77
:1045100042EA05620139012842EA012102D002285B
:104520000ED101E00A4A00E00A4A94600020D160FE
:10453000136030BD4FF0FF3030BD6FF0060030BD6E
:104540004FF0FF3030BD00BF00140140002001409B
:10455000600000A0800000A06FF0050070476FF0C1
:104560000500704710F00F0018BF4FF0FF30704784
:1045700008B50B461146C8B903F00F0013F0F0035D
:1045800002D0102B15D107E00B4B80011B6800F007
:10459000C000D3F8283207E0074B01301B6800F059
:1045A0000300D3F82C320001984708BD4FF0FF30CC
:1045B00008BD4FF0FF3008BDE4000020030903F000
:1045C00003039A1D013B1207022B0A4402D98009FA
:1045D0008006121810787047030903F0030310B522
:1045E0009C1D013B2407022B214402D9800980062F
:1045F00009180A7010BD030903F003039A1D013B5B
:104600001207022B0A4402D980098006121810886A
:1046100080B27047030903F0030310B59C1D013BF2
:104620002407022B214402D98009800609180A8038
:1046300010BD0020704770476FF0050070476FF0A5
:10464000050070476FF0050070476FF00500704778
:1046500030B5039C049D002833D111F0F00002F125
:10466000C04202D010282CD103E001F003018906DA
:1046700003E001F0010101310907022B0A4407D0D0
:10468000042B03D0012B1FD1013B06E0002314E0D3
:1046900000230AE0995CE1540133AB42FAD10EE009
:1046A00032F8021B013324F8021BAB42F8D106E0BA
:1046B00052F8041B013344F8041BAB42F8D100202C
:1046C00030BD4FF0FF3030BD6FF0060030BD30B56B
:1046D000039C049D002833D111F0F00002F1C04288
:1046E00002D010282CD103E001F00301890603E079
:1046F00001F0010101310907022B0A4407D0042B04
:1047000003D0012B1FD1013B06E0002314E000235E
:104710000AE0E15C99540133AB42FAD10EE034F87F
:10472000021B013322F8021BAB42F8D106E054F819
:10473000041B013342F8041BAB42F8D1002030BD0A
:104740004FF0FF3030BD6FF0060030BD002814BFC1
:104750004FF0FF3000207047002814BF4FF0FF30AB
:104760000020704728B9044B1A6942F080021A6190
:1047700070474FF0FF3070470020024048B9064BA9
:10478000064A5A60064A5A60DA6842F03502DA6030
:1047900070474FF0FF30704700200240230167450B
:1047A000AB89EFCD0B4B1B8880B9FF2B06D911B11C
:1047B0004FF4006008605AB15B0804E011B14FF497
:1047C0008060086022B11360002201E04FF0FF32E8
:1047D00010467047E0F7FF1F10B5044638B9104681
:1047E00001F100611A46FDF705FC204610BD4FF0AF
:1047F000FF3010BD002814BF4FF0FF30002070477D
:1048000070B5002826D1154C5B08256945F00105D7
:104810002561054615E0165A01F1006426520F4C39
:10482000E66816F0010FFAD1E668023016F0100FB4
:1048300006D023696FF0050023F00103236170BDEA
:1048400001359D42E7D1054B00201A6922F0010293
:104850001A6170BD4FF0FF3070BD00BF00200240F4
:10486000002814BF4FF0FF300020704773B50E468C
:104870001546044650B901A90246FFF793FF2046AA
:1048800031462A46019BFFF7A7FF01E04FF0FF30BA
:104890007CBD73B50E461546044650B901A90246C3
:1048A000FFF780FF204631462A46019BFFF7A2FF13
:1048B00001E04FF0FF307CBD60B9084B01F10061B1
:1048C0001A6942F002021A6159611A6942F0400203
:1048D0001A6170474FF0FF30704700BF0020024060
:1048E00098B90B4BD86810F0010009BF1A696FF036
:1048F000010022F002021A61054BDB6803F010038D
:10490000002B18BF6FF0050070474FF0FF30704765
:104910000020024073B50E461546044650B901A961
:104920000246FFF73FFF204631462A46019BFFF72C
:1049300067FF01E04FF0FF307CBD73B50E461546B2
:10494000044650B901A90246FFF72CFF2046314624
:104950002A46019BFFF784FF01E04FF0FF307CBD4A
:10496000002825D1144B154A9A60154A9A601A6995
:1049700042F020021A611A6942F040021A610E4B9D
:10498000DA6812F00102FAD1196921F020011961E7
:10499000196941F0100119610A4B1A80064BD86859
:1049A00010F00100FAD11A6922F010021A61704762
:1049B0004FF0FF30704700BF0020024023016745E1
:1049C000AB89EFCD00F8FF1F20B9034BD869C0F3C6
:1049D00040007047002070470020024010B5C9B267
:1049E0000446143001F03BF8012802D0012384F87A
:1049F0002C3010BD002310B5044680F82C30043054
:104A000001F017F804F1140001F013F8034B2078BB
:104A10001B68D3F8B430984710BD00BFE4000020F5
:104A200008B5034B00781B68D3F8B830984708BD29
:104A3000E400002070B50A4D04462B68616AD3F883
:104A4000BC6094F8282094F829300078B0472B688F
:104A50002078D3F8C05021460022024BA84770BDF1
:104A6000E4000020DD49000810B50C461430496808
:104A7000226801F083F86060002010BD10B50C467C
:104A800004304968226801F00DF8636898421ABF43
:104A900060606FF00500002010BD70B50C4C05463D
:104AA00023680078D3F8C830984778B92E1D30466F
:104AB00000F0C4FF58B1236830462D78D3F8C440C5
:104AC00000F0E0FF01462846A04770BD002070BD01
:104AD000E4000020C38A63B9038B6BB9827880F845
:104AE0002D3080F82C202C30022208604A601846B5
:104AF00070476FF0050070476FF0050070470020A9
:104B0000704730B5C38A4468427883B9302505FBC5
:104B10000242048B127A94420CD280F82C3080F836
:104B20002D3002222C3008604A60184630BD6FF0EC
:104B3000050030BD6FF0050030BD0020704738B56E
:104B4000C38A04460D46028BFBB9C368196B09780A
:104B500091421DD902F07F0002F08002D2B20AB168
:104B60001B6E01E0D3F890309847002318B901225A
:104B700084F82C2001E084F82C3084F82D302C347B
:104B800002232C606B60002038BD6FF0050038BD3B
:104B90006FF0050038BD6FF00500704700207047CA
:104BA00000207047002070470020704700207047A9
:104BB0006FF0050070476FF00500704708B5C368D7
:104BC000807D9B69984708BD002070470020704792
:104BD000C38A10B553B9028B5AB94478034603F817
:104BE0002C4F0B6001234B60104610BD6FF0050089
:104BF00010BD6FF0050010BD00207047837D013BA4
:104C000043700020704770B5C28A038B45684478B2
:104C10008AB9302606FB0454257ADBB29D420DD9B1
:104C2000E46814F83340034603F82C4F0B6001236B
:104C30004B60104670BD6FF0050070BD6FF0050051
:104C400070BD0020704700207047034604E00888CC
:104C50001A88904204D00C318A68002AF7D1114694
:104C60000846704738B5036B04461B78154663B198
:104C7000436E0020984758B9D4F894302946984795
:104C8000002818BF6FF0050038BD6FF0050038BD73
:104C90006FF0050038BD2DE9F04104460D460029AE
:104CA0004ED1037C023B052B7DD8DFE803F02D03BA
:104CB0002D7C7C2DC3680020D3F898309847626A19
:104CC000236A064680189842E16965D8E368891826
:104CD000D3F89C30324600209847636A05469E19F7
:104CE000E36800209B6E666201469847626A236A09
:104CF0009A4201D3062323740121E0680A46FFF794
:104D0000B1FF002D4CD015E0C3680020D3F89830D7
:104D10009847002847D1A36A04F11C019B682046EC
:104D20009847014600283ED12074E0680122BDE882
:104D3000F04197E70021E0680A46FFF793FF2FE074
:104D4000C36808469B6F984718B1E3682846DB6F35
:104D50009847E3682846D3F8983098470C236B436C
:104D600012490746CE18B2687068824216D207EB25
:104D7000020C844512D2E068C958D0F89C308918DA
:104D800028463A469847E3682846D3F894300121EC
:104D90009847B368FF18B760002501E06FF005057C
:104DA0002846BDE8F0816FF00505C3E73C320020DE
:104DB000037C70B5042B04462AD0062B2DD0022B81
:104DC00040D1426A056A438AAD1AADB29D4228BFFE
:104DD0001D46C169C3688918DB6E00202A469847C2
:104DE000002827D1E36829469B6E9847002821D1E7
:104DF00045B1636A226AEB189342636204D1638A05
:104E0000AB4201D9042323740121E0680A460EE075
:104E1000072303740021C06808E0836A00F11C01C5
:104E20009B689847014628B92074E0680122BDE8D4
:104E3000704017E70021E0680A46FFF713FF6FF0A4
:104E4000050070BD002070BD2DE9F0472B4E0C23EE
:104E500003FB016305460C46D3F8C080D3F8C89025
:104E600011B9BDE8F047A3E706EB8103D3F8800151
:104E70000138C3F8800100283DD0EB6808469B6CE0
:104E8000984720B1EB682046DB6C9847012006EB81
:104E90008406D6F88031834227D9184B0C2606FBAE
:104EA0000436D6F8C830D6F8C470FF1AEB6818D0AC
:104EB0005B6D20469847EB68B84238BF0746BFB2E3
:104EC0003A46DB6E08EB090120469847EB68394605
:104ED0009B6E20469847D6F8C830FF18C6F8C870B1
:104EE00003E09B6E204639469847EB6820465B6E90
:104EF000012198470020BDE8F08700BF3C32002028
:104F0000F8B50798BDF818600FE00F7897420BD1FD
:104F10004F789F4208D14F88B74205D1CB68456092
:104F2000046053B19847F8BD10314C683CB18D68AE
:104F3000002DEAD16FF00500F8BD1846F8BD6FF0FE
:104F40000500F8BD2DE9F743436842780F4630214C
:104F500001FB0232038BD168127A01EBC3019A4242
:104F60000446B0F816804D6820D3FDB1696809B9D0
:104F70002B68DBB14FEA18265FFA88F84FF000097A
:104F8000204632464346CDF800900197FFF7B8FF20
:104F900070B12D6855B100972046314642464B46C8
:104FA000A847002818BF6FF0050001E06FF005006A
:104FB000BDE8FE8313B5048BC38A009401911A0ADD
:104FC0008168DBB2FFF79CFF1CBDC36810B51B688E
:104FD0000446984758B9E3681B69984750B9206B55
:104FE00050B18047002818BF6FF0050010BD6FF06A
:104FF000050010BD6FF0050010BDC36810B55B68FB
:105000000446984758B9E3685B69984750B9606BA4
:1050100050B18047002818BF6FF0050010BD6FF039
:10502000050010BD6FF0050010BD70B543684278F3
:10503000302606FB0236C3680446DB689847C8B9C9
:10504000A36B0BB9002510E098470028FAD011E0B7
:10505000F36803EBC5035B682BB15B691BB12846A2
:105060002146984748B90135EDB2337AAB42EFD8C3
:10507000002070BD6FF0050070BD6FF0050070BDC1
:1050800000207047002070472DE9F743374F0C236D
:1050900003FB01730C4611680546C3F8C010516844
:1050A000C3F8C4100021C3F8C810C368D2F8048044
:1050B0005B6D20460192984708F1FF310918B1FB5A
:1050C000F0F107EB8403019AC3F880115668B6FB30
:1050D000F0FE00FB1E6616B90131C3F88011D2F84C
:1050E0000090404534BF06464646EB68B6B2DB6EDC
:1050F0004946324620469847EB6820469B6E31462B
:1051000098470C2303FB0477EB68C7F8C8609B6CD7
:105110002046984708B3EB682046DB6C9847B8EB0D
:105120000601EB6816D0B14234BF8846B0461FFA7C
:1051300088F8DB6E09EB0601424620469847EB688B
:1051400020469B6E41469847D7F8C8304344C7F87D
:10515000C83002E09B6E20469847EB6820465B6EA5
:10516000012198470020BDE8FE8300BF3C320020AB
:10517000064B0C2202FB01339A685B6892B29BB229
:105180009A4234BF6FF0010000207047FC320020CB
:105190000020704738B505460C46FFF775FF38B953
:1051A00028462146FFF7E4FF10F1020FF8D038BD82
:1051B0006FF0050038BD002008604860704770B58A
:1051C00045684678302303FB0653027E1D7AC48A65
:1051D000954205D9DB6803F83240BDE87040EAE744
:1051E0006FF0050070BD028B22B9C28A03789A4223
:1051F00000D8E0E76FF005007047C28A7F2A04D824
:10520000028B12B9437803B9D5E76FF005007047F8
:10521000D1E7028B3AB9C28A012A04D1827842F0DE
:1052200020028270C7E76FF005007047C38A70B52F
:10523000028B04460D46002B1FD1C36802F07F0687
:10524000196B0978B14218D902F08002D2B22AB1A2
:105250009B6D30469847E3685B6E06E0D3F8883074
:1052600030469847E368D3F8943001213046984798
:1052700020462946BDE870409DE76FF0050070BDEF
:1052800099E7028B3AB9C28A012A04D1827822F0C6
:10529000200282708FE76FF00500704737B502215A
:1052A00004460A46C068FFF7DDFC054600287FD1AA
:1052B000E368D3F8983098470828024678D1E36825
:1052C0002846D3F89C3069469847002870D19DF84D
:1052D00001209DF8031062759DF802209DF807508B
:1052E00042EA0122E2829DF805109DF804209DF813
:1052F000003042EA01229DF80610237541EA05219B
:105300006183012113F0600F2283217403D104F122
:1053100014002B4914E003F01F03012B14D1D3B266
:1053200061686278302505FB0212117A99420BD927
:10533000D26802EBC3035B682BB1996804F11400D7
:10534000FFF783FC00E018460023A0626362002898
:105350002ED04368002B2BD0204604F11C01984727
:1053600030BB236A0BB1E26912B3658BAB4288BFD5
:1053700025625DB906232374E36828469B6E29469F
:105380009847A8B9E06801212A4608E094F914304A
:10539000002B07DB0323E068237400210122FFF7C1
:1053A00061FC0CE0022323742046FFF701FD06E0B8
:1053B0000021E0680A46FFF755FC6FF005003EBD8E
:1053C000C069000800207047002070472DE9F043B5
:1053D000002585B004462946C02261480295039500
:1053E000FCF721FE2946C0225E48FCF71CFE294638
:1053F00040225D48FCF717FE02AEA1686570257477
:10540000204601222B4600950196FFF779FD0146C3
:10541000002840F09F80029B6568DF79E36867821F
:105420009B6B9847002840F09580E36839461B6DD8
:105430009847002840F08E80E3683946D3F88030E2
:1054400098470146002840F08580E0680122FFF778
:1054500009FC00287ED1009063782046A1680222D2
:105460000196FFF74DFD002874D1092638E0029B14
:105470009B195A78052A2FD1D97893F8029001F018
:105480000301022993F8048009F00F0707D00329CC
:1054900004D001290CBF0321002100E00121E368B1
:1054A000FFB29B6B3846984719F0800FE36808D02D
:1054B0001B6D414638469847E36838465B6E0221CB
:1054C00009E0D3F88030414638469847E3683846CB
:1054D000D3F8943001219847029B9B5DF618B6B231
:1054E000039BB342C3D800260EE01B6C30461F4915
:1054F000984700282ED1E36830461B6F1C49984717
:10550000002827D10136F6B2E3681A6B1278B2424E
:10551000EBD82B680BB9002611E0204698470028ED
:10552000F9D017E0EB6803EBC6035B682BB1DB68CF
:105530001BB130462146984760B90136F6B22B7A46
:10554000B342EFD8E36B03B19847E36800209B694F
:10555000984701E06FF0050005B0BDE8F08300BF9B
:10556000FC3200203C320020BC330020494E0008B1
:10557000974C000808B5436C03B19847002008BD5C
:10558000836C10B5044603B19847E3681B6A9847DB
:1055900010BDC36C10B5044603B19847E3685B6A5D
:1055A000984710BD08B5036D03B19847002008BDAA
:1055B00008B5036C0BB108469847002008BD00BF32
:1055C000094B0246186809E0037D93420AD0437DE7
:1055D000934207D0836A23B1A3F128000028F3D1B6
:1055E00070471846704700BFFC33002038B50446AA
:1055F000007E0D46FFF7E4FFF0B1618B07291BD158
:10560000E28AE2B983691C0A80F8203080F82140E0
:105610001C0C1B0E80F82330037F80F8224080F89A
:105620002430437F80F82530837F80F82630203077
:1056300028606960104638BD6FF0050038BD6FF016
:10564000050038BD0020704738B50446007E0D4681
:10565000FFF7B6FF48B1628B072A06D1E38A3BB950
:10566000203028606A60184638BD6FF0050038BDEC
:105670006FF0050038BD0020704700207047438B55
:105680000BB9FFF798BD6FF00500704770B5054680
:10569000007E0E46FFF794FF0446002826D06B8B51
:1056A000002B23D1EA8A22F00303002B1ED1037BB7
:1056B0004BB1104B21691B6812F00102407B9B6EBD
:1056C00018BF0A469847237953B10A4BEA8AA16862
:1056D0001B6812F0020260799B6E18BF0A46984759
:1056E00028463146BDE87040FFF765BD6FF0050004
:1056F00070BD00BFE4000020007E10B50C46FFF72F
:105700005FFF23689A785978120442EA01221978D7
:105710000A43D97842EA016282611B790268037701
:1057200023685B79437723689B79837782F82830F5
:10573000036882695A62002283F82920027F036885
:10574000012A02D0022A0BD104E093F8292042F06A
:10575000600203E093F8292042F0400283F82920F8
:10576000427F0368012A03D0022A06D008220CE0F7
:1057700093F8292042F0030203E093F8292042F035
:10578000020283F829200368092283F82820006890
:10579000BDE81040FFF74EB970B50D46FFF710FF9A
:1057A0000446A8B190F827306BB90068043000F0C7
:1057B0004FF93F2807D9EB68012184F82710D3F867
:1057C0009430A07D98472068BDE87040FFF765B928
:1057D0006FF0050070BD2DE9F3410D46FFF7F0FEB7
:1057E000044600287BD0EB683F491B6CC07D98477E
:1057F0000146002873D1EB68E07D9B6E9847002836
:105800006DD1EB68E07D5B6E01219847002866D181
:10581000EB68A07D1B6F35499847064600285ED18E
:1058200023797BB1324D67792B6838461B6DD4F8EC
:10583000088098472B680096DD6D38464146424601
:105840003346A847237B73B1294D667B2B683046CE
:105850001B6D276998472A6800230093D56D304651
:1058600039463A46A8472068FFF7C4F82368A27F64
:1058700083F828202368A2695A62002283F829202D
:10588000227F2368012A02D0022A0BD104E093F878
:10589000292042F0600203E093F8292042F0400200
:1058A00083F82920627F2368012A03D0022A06D0C8
:1058B00008220CE093F8292042F0030203E093F859
:1058C000292042F0020283F829202368092283F864
:1058D0002820206802B0BDE8F041FFF7ABB86FF0B8
:1058E000050002B0BDE8F08173590008F5580008C2
:1058F000E4000020F0B5426843780E46302101FBF9
:1059000003239B190546187C93B010F0800F2CD10F
:10591000FFF756FE044640B3EB683046D3F89830A4
:1059200098474028074620D8EB683046D3F89C308B
:1059300069463A46984794F827302BB1EB683046D1
:10594000D3F89430012198472068043000F080F8A3
:105950003F2802D8002384F8273000AB206810A924
:1059600010931197FFF78AF801E06FF0050013B06C
:10597000F0BDF0B5426843780D46302101FB0323AA
:105980005B19044693F8200093B010F0800F2CD1DF
:10599000FFF716FE0746002827D00068143000F0F5
:1059A0004DF80146B0B1402834BF06464026B6B295
:1059B00000AB10A9386810931196FFF755F8E3680B
:1059C0006946DB6E284632469847E36828469B6E58
:1059D000314602E0E36828469B6E9847E368284614
:1059E0005B6E01219847002001E06FF0050013B0C5
:1059F000F0BD10B50446007DFFF7E2FD58B9607DAB
:105A0000FFF7DEFD50B9074A136803B12833A362DC
:105A10001460002010BD6FF0050010BD6FF0050090
:105A200010BD00BFFC3300200130884228BF002099
:105A300070470023C3608360184670478268C3685C
:105A40009A4201D3D01A704740681218D01A704792
:105A500010B50446FFF7F2FF6368181A10BD38B599
:105A600004460D46FFF7F4FF012809D9A368226810
:105A7000D554A0686168FFF7D7FFA060012038BD4A
:105A8000002038BD38B50446FFF7D8FF38B1E068CC
:105A9000236861681D5CFFF7C7FFE06000E0054612
:105AA000284638BD2DE9F0410D4604461746FFF75C
:105AB000CFFF854222D2A36866682068F61AB542F5
:105AC0000ED9C01839463246C6EB0508FCF792FAE3
:105AD0002068B9194246FCF78DFAC4F808800EE038
